:020000040000FA
:0400000007EF00F016
:0A0008003F8255ED0BF0ECEF09F01C
:0F08000000C0F9A4B0999282F88090BFFFC600A3
:1008100020EE1FF010EE79F0060EDBCFE3FFE806C6
:10082000FCE2000E0001786F7951D8A403D0170EB6
:10083000796F01D07907000E7B6F3AD218EC0AF07D
:10084000000180510E5C606F81510F58616F60C074
:100850000AF061C00BF0CAEC0BF00BBEC8D10B5014
:1008600004E1960E0A5CD8A0C2D118EC0AF00EC0C2
:1008700080F00FC081F03450D8A402D0010E01D016
:10088000000E346EB4D1790E176E000E186E000E85
:10089000196E170E1A6ED3EC07F03450D8A406D098
:1008A000000E0001636F0B0E626F0DD079C00AF06D
:1008B0000B6A000E0D6E0A0E0C6E18EC09F00AC0E1
:1008C00062F00BC063F03450D8A406D0000E0001D3
:1008D000656F0B0E646F0DD079C00AF00B6A000EC5
:1008E0000D6E0A0E0C6E5DEC08F00AC064F00BC0D1
:1008F00065F062C012F07AC00AF00B6A000E0D6E4D
:100900000A0E0C6E5DEC08F00A50136E7AC00AF005
:100910000B6A000E0D6E0A0E0C6E18EC09F00A50F0
:10092000146E00016451DAEC0CF07CD17A0E176E73
:10093000000E186E000E196E3B0E1A6ED3EC07F007
:100940003450D8A406D0000E0001676F0B0E666FFE
:100950000DD07AC00AF00B6A000E0D6E0A0E0C6EF6
:1009600018EC09F00AC066F00BC067F03450D8A448
:1009700006D0000E0001696F0B0E686F0DD07AC0B3
:100980000AF00B6A000E0D6E0A0E0C6E5DEC08F09C
:100990000AC068F00BC069F079C00AF00B6A000E5B
:1009A0000D6E0A0E0C6E18EC09F00A50126E68C03B
:1009B00013F066C014F079C00AF00B6A000E0D6ED9
:1009C0000A0E0C6E5DEC08F00A50DAEC0CF02AD13D
:1009D0007C0E176E000E186E000E196E630E1A6EE6
:1009E000D3EC07F03450D8A406D0000E00016B6F92
:1009F0000B0E6A6F0DD07CC00AF00B6A000E0D6EF4
:100A00000A0E0C6E18EC09F00AC06AF00BC06BF00D
:100A10003450D8A406D0000E00016D6F0B0E6C6F21
:100A20000DD07CC00AF00B6A000E0D6E0A0E0C6E23
:100A30005DEC08F00AC06CF00BC06DF0000E126E99
:100A40006CC013F06AC014F0020EDAEC0CF0EAD0BD
:100A50007D0E176E000E186E010E196E0C0E1A6EBA
:100A6000D3EC07F03450D8A406D0000E00016F6F0D
:100A70000B0E6E6F0DD07DC00AF00B6A000E0D6E6E
:100A80000A0E0C6E18EC09F00AC06EF00BC06FF085
:100A90003450D8A406D0000E0001716F0B0E706F99
:100AA0000DD07DC00AF00B6A000E0D6E0A0E0C6EA2
:100AB0005DEC08F00AC070F00BC071F06EC012F06F
:100AC0007FC00AF00B6A000E0D6E0A0E0C6E5DEC14
:100AD00008F00A50136E7FC00AF00B6A000E0D6E0C
:100AE0000A0E0C6E18EC09F00A50146E00017051D9
:100AF000DAEC0CF097D07F0E176E000E186E010E18
:100B0000196E1F0E1A6ED3EC07F03450D8A406D01D
:100B1000000E0001736F0B0E726F0DD07FC00AF0D4
:100B20000B6A000E0D6E0A0E0C6E18EC09F00AC06E
:100B300072F00BC073F03450D8A406D0000E000140
:100B4000756F0B0E746F0DD07FC00AF00B6A000E2C
:100B50000D6E0A0E0C6E5DEC08F00AC074F00BC04E
:100B600075F07DC00AF00B6A000E0D6E0A0E0C6E59
:100B700018EC09F00A50126E74C013F072C014F031
:100B80007DC00AF00B6A000E0D6E0A0E0C6E5DEC55
:100B900008F00A50DAEC0CF045D07E0E176E000E0D
:100BA000186E010E196E070E1A6ED3EC07F0345052
:100BB000D8A406D0000E0001776F0B0E766F0DD013
:100BC0007EC00AF00B6A000E0D6E0A0E0C6E18EC59
:100BD00009F00AC076F00BC077F00A0E126E76C0EC
:100BE00013F00A0E146E0B0EDAEC0CF01BD00001A1
:100BF0007851266E276A2750000AD8A413D02650B1
:100C0000000AD8B440D6010AD8B490D6030AD8B4A2
:100C1000DFD6010AD8B41CD7070AD8B46CD7010AAA
:100C2000D8B4BBD700017851D8B403D07805D8A484
:100C30000AD0010E0A6E010E0B6E000E0C6E000E35
:100C4000D0EC0CF02DD0020E7819D8A40AD0000EEA
:100C50000A6E000E0B6E000E0C6E000ED0EC0CF047
:100C60001FD0030E7819D8B404D0040E7819D8A474
:100C70000AD0010E0A6E000E0B6E000E0C6E000EF6
:100C8000D0EC0CF00DD0050E7819D8A409D0000EC8
:100C90000A6E000E0B6E000E0C6E000ED0EC0CF007
:100CA000BAEC09F00009D8A484A002D00001782B86
:100CB000050E00017865C2D5790E166E000E176E0E
:100CC0009FEC08F01200FC0ED316EEEC0CF002ECD8
:100CD0000DF0AEEC0CF0C6EC0CF01BEC0DF0D58E6C
:100CE000880E176E000E186E89EC07F0BAEC09F04A
:100CF0000009D8B406D084B002D0030E01D0040E8F
:100D00003D6E87EC09F00009D8A484A262D03D2A88
:100D10003D04286E010E28645CD0000E3D6E59D053
:100D200020EE88F000EE16F0060EDBCFEBFFE806B3
:100D3000FCE219EC08F0D4D720EE88F000EE16F0B3
:100D4000060EDBCFEBFFE806FCE250EC09F0C8D75B
:100D500020EE88F000EE16F0060EDBCFEBFFE80683
:100D6000FCE279EC0BF0BCD70A0E126E0A0E136E81
:100D70000A0E146E0A0EDAEC0CF0000E0A6E000E6B
:100D80000B6E000E0C6E000ED0EC0CF084A0ECD7B5
:100D90003D0E296EE10E286E400EE82EFED7282E5D
:100DA000FCD7292EFAD720EE88F000EE1FF0060EB1
:100DB000DBCFEBFFE806FCE208EC04F0000E3D6E32
:100DC0008FD7DDEC08F0BAEC09F00009D8A4F6D70B
:100DD000F8D73D50286E296A2950000AD8A480D738
:100DE0002850000AD8B49CD7010AD8B4A5D7030A62
:100DF000D8B4AED7010AD8B4C9D7070AD8B4E3D754
:100E00006FD7090E356465D0000E356E362A36046C
:100E1000016E020E016402D0000E366E8A848A864C
:100E20008A888A8A930E3624D96EDA6A000EDA220C
:100E3000DF50016E026A010E0124F66E080E0220D8
:100E4000F76E0800F5CF03F0970E3624D96EDA6AF4
:100E5000000EDA22DE04D8B4039E03C08CFF030E1A
:100E60003618D8B403D0016A012A01D0016A0146BC
:100E700001468A500118FB0B01188A6E020E3618C3
:100E8000D8B403D0016A012A01D0016A01460146A3
:100E900001468A500118F70B01188A6E3604D8B43F
:100EA00003D0016A012A01D0016A013A8A5001186F
:100EB000EF0B01188A6E3650D8B403D0016A012AAC
:100EC00001D0016A013A01468A500118DF0B01186E
:100ED0008A6E8F0E3624D96EDA6A000EDA22DE5060
:100EE000355CD8A014D03650D8A402D08A8A0FD04E
:100EF0003604D8A402D08A880AD0020E3618D8A4A4
:100F000002D08A8604D0030E3618D8B48A84352AD3
:100F1000120042EC0CF0196E20EE02F01750D926A8
:100F20001850DA2219C0DFFF59EC0CF0196E20EED0
:100F300001F01750D9261850DA2219C0DFFFFBEC58
:100F40000BF017C0D9FF18C0DAFFDF6E13EC0CF0FE
:100F5000196E20EE06F01750D9261850DA2219C063
:100F6000DFFFA1EC0CF0196E20EE05F01750D9262A
:100F70001850DA2219C0DFFFE3EC0BF0196E20EEF7
:100F800004F01750D9261850DA2219C0DFFF2BECD5
:100F90000CF0196E20EE03F01750D9261850DA2203
:100FA00019C0DFFF1200000E1E6E18EC0AF00001DF
:100FB00082510E5C1C6E83510F581D6E1CC00AF0CE
:100FC0001DC00BF0CAEC0BF00BBE0ED00B5004E1B1
:100FD000C80E0A5CD8A008D018EC0AF00EC082F047
:100FE0000FC083F0010E1E6E87EC09F00009D8B423
:100FF00013D017C0D9FF18C0DAFFDFCF1BF0010EE6
:10100000DF261A501B5CD8A0120017C0D9FF18C0E9
:10101000DAFF19C0DFFF1200020E136EBC0E126E53
:10102000BDEC0AF00009D8B412001E50D8B412006A
:10103000E0D716C00AF00B6A000E0D6E0A0E0C6E99
:1010400018EC09F00A50126E17C00AF00B6A000E75
:101050000D6E0A0E0C6E5DEC08F00A50136E17C090
:101060000AF00B6A000E0D6E0A0E0C6E18EC09F0F9
:101070000A50146E16C00AF00B6A000E0D6E0A0EAE
:101080000C6E5DEC08F00A50DAEC0CF032C00AF09D
:1010900032C00BF0000E0C6E000ED0EC0CF0335092
:1010A0001818D8B412003250D8A402D0010E01D0C2
:1010B000000E326E18C033F01200000E0F6E0DAE2F
:1010C00006D00C6C0D1ED8B00D2A010E0F6E0BAEA3
:1010D00006D00A6C0B1ED8B00B2A010E0F1A000E98
:1010E000116E000E106E0C500D10D8B41CD0010EF5
:1010F0000E6E04D0D8900C360D360E2A0DAEFAD7EF
:10110000D890103611360C500A5C0D500B58D8A0F0
:1011100005D00C500A5E0D500B5A1080D8900D323D
:101120000C320E2EEDD70F50D8B404D0106C111E17
:10113000D8B0112A10C00AF011C00BF0120020EE36
:1011400002F01650D9261750DA22DF5009EC0BF0C6
:1011500020EE01F01650D9261750DA22DF502FEC7E
:101160000BF016C0D9FF17C0DAFFDF5096EC0AF07B
:1011700020EE06F01650D9261750DA22DF506DEC1B
:101180000AF020EE05F01650D9261750DA22DF506B
:1011900070EC0CF020EE04F01650D9261750DA222D
:1011A000DF5044EC0AF020EE03F01650D926175019
:1011B000DA22DF50E3EC0AF0120087EC09F00009B4
:1011C000D8B408D03E2A3E04166E090E166402D02A
:1011D000010E3E6E3EC00AF03EC00BF03EC00CF069
:1011E0003E50E4EC0CF00A0E126E3EC00AF00B6AA0
:1011F000000E0D6E0A0E0C6E5DEC08F00A50136EB8
:101200003EC00AF00B6A000E0D6E0A0E0C6E18EC52
:1012100009F00A50146E0C0EDAEC0CF0000E0A6E97
:10122000000E0B6E000E0C6E000ED0EC0CF01200D7
:10123000000E0F6E0BAE06D00A6C0B1ED8B00B2A38
:10124000010E0F6E0DAE04D00C6C0D1ED8B00D2A21
:101250000C500D10D8B418D0010E0E6E04D0D890DA
:101260000C360D360E2A0DAEFAD70C500A5C0D5016
:101270000B58D8A004D00C500A5E0D500B5AD890D1
:101280000D320C320E2EF1D70F50D8B404D00A6CA8
:101290000B1ED8B00B2A0AC00AF00BC00BF01200CC
:1012A0001AC00AF00B6A000E0D6E0A0E0C6E18ECD6
:1012B00009F00A50126E1CC00AF00B6A000E0D6E87
:1012C0000A0E0C6E5DEC08F00A50136E1CC00AF09A
:1012D0000B6A000E0D6E0A0E0C6E18EC09F00A5027
:1012E000146E1AC00AF00B6A000E0D6E0A0E0C6E18
:1012F0005DEC08F00A50DAEC0CF0010E0A6E000EFC
:101300000B6E000E0C6E000ED0EC0CF0120084B0D0
:1013100004D0000E386E010E376E3750D8B428D086
:1013200018EC0AF0000186510E5C126E87510F58BE
:10133000136E12C00AF013C00BF0CAEC0BF00BBE18
:1013400013D00B5004E1320E0A5CD8A00DD018EC7B
:101350000AF00EC086F00FC087F0000E376E3850CE
:10136000D8B406D0010E120084A002D0010E386E4F
:10137000000E120084B204D0000E3A6E010E396ED7
:101380003950D8B427D018EC0AF02C500E5C126EED
:101390002D500F58136E12C00AF013C00BF0CAEC98
:1013A0000BF00BBE13D00B5004E1640E0A5CD8A006
:1013B0000DD018EC0AF00EC02CF00FC02DF0000E6E
:1013C000396E3A50D8B406D0010E120084A202D071
:1013D000010E3A6E000E1200120EF66E1A0EF76E25
:1013E000000EF86E00EE8FF010EE0CF00900F5CF55
:1013F000EEFFE550E150FAE13C0EF66E1A0EF76E84
:10140000000EF86E0900F5CF3EF000EE80F00F0EF2
:10141000EE6AE806FDE100EE2AF0140EEE6AE80638
:10142000FDE13F903F92000EF86E000163EF06F081
:1014300000018451CE5C0A6E8551CF580B6ECAEC08
:101440000BF00BBE1CD0DC0E0A5C050E0B58D8A0AE
:1014500016D0CECF84F0CFCF85F02A50106E2B500F
:10146000116E2A4A2B2A11BE0AD00F0E105C270ECD
:101470001158D8A004D0000E2B6E000E2A6E2AC080
:101480000EF02BC00FF01200156E1550D8B41200DC
:101490000D0E1560120015C00AF00B6A000E0D6EDD
:1014A0000A0E0C6E18EC09F00AC012F00BC013F013
:1014B00015C00AF00B6A000E0D6E0A0E0C6E5DEC84
:1014C00008F00A38F00B1210146E050E0F6E14C0DF
:1014D00010F0D00E82EC0CF01200156E1550D8B43E
:1014E0001200200E1560120015C00AF00B6A000EE3
:1014F0000D6E0A0E0C6E18EC09F00AC012F00BC04B
:1015000013F015C00AF00B6A000E0D6E0A0E0C6E79
:101510005DEC08F00A38F00B1210146E040E0F6E1A
:1015200014C010F0D00E82EC0CF01200156E180EE4
:101530001560120015C00AF00B6A000E0D6E0A0E3F
:101540000C6E18EC09F00AC012F00BC013F015C0B5
:101550000AF00B6A000E0D6E0A0E0C6E5DEC08F0C0
:101560000A38F00B12103F0B146E020E0F6E14C0EF
:1015700010F0D00E82EC0CF0120084B01AD018ECEF
:101580000AF02E500E5C156E2F500F58166E15C0B7
:101590000AF016C00BF0CAEC0BF012500A5C0B50AC
:1015A000800A146E1350800A1458D8A00AD0010E75
:1015B00007D018EC0AF00EC02EF00FC02FF0000E6E
:1015C0003B6E3B501200156E640E1560120015C084
:1015D0000AF00B6A000E0D6E0A0E0C6E18EC09F084
:1015E0000AC012F00BC013F015C00AF00B6A000E0F
:1015F0000D6E0A0E0C6E5DEC08F00A38F00B12103E
:10160000146E060E0F6E14C010F0D00E82EC0CF0AB
:101610001200156E3C0E1560120015C00AF00B6A20
:10162000000E0D6E0A0E0C6E18EC09F00AC012F0D6
:101630000BC013F015C00AF00B6A000E0D6E0A0EF7
:101640000C6E5DEC08F00A38F00B1210146E000EF0
:101650000F6E14C010F0D00E82EC0CF01200156E5C
:101660003C0E1560120015C00AF00B6A000E0D6EDC
:101670000A0E0C6E18EC09F00AC012F00BC013F041
:1016800015C00AF00B6A000E0D6E0A0E0C6E5DECB2
:1016900008F00A38F00B1210146E010E0F6E14C011
:1016A00010F0D00E82EC0CF012000600D9CF04F03E
:1016B000DACF05F0F6CF06F0F7CF07F0F8CF08F055
:1016C000F5CF09F0F2A407D0FA0ED76E230ED66E2E
:1016D000F29401EC07F009C0F5FF08C0F8FF07C05D
:1016E000F7FF06C0F6FF05C0DAFF04C0D9FF3F923E
:1016F00011000A0E126E1BC00AF00B6A000E0D6E6E
:101700000A0E0C6E18EC09F00A50136E0A0E146ED5
:101710000B0EDAEC0CF0000E0A6E000E0B6E000ED3
:101720000C6E000ED0EC0CF01200136E13EC0DF0EA
:101730001350FE0BF8EC0CF01050F8EC0CF017EC1A
:101740000DF013500109F8EC0CF0000E92EC0CF0C7
:1017500011C0D9FF12C0DAFFDF6E0FEC0DF01200DE
:10176000000E0D6E000E0C6E0BD00C500A6E0D505C
:101770000B6E0C4A0D2A0B500CE10A28D8B012004F
:10178000C5CF0AF01F0E0A16D8A4EFD7C7A41200BF
:10179000ECD712000BBE05D00B5010E10A04D8B0F4
:1017A0000DD00AC00CF00BC00DF00C1E0D1E0C4A23
:1017B0000D2A0CC00AF00DC00BF012000AC00AF08E
:1017C0000BC00BF01200000E166E050E106E160EFA
:1017D000116E000E126ED00E95EC0BF016C014F0C8
:1017E0000F0E141616380F0B010B0A0DF3501424AC
:1017F000156E15501200000E166E020E106E160EAB
:10180000116E000E126ED00E95EC0BF016C014F097
:101810000F0E141616380F0B030B0A0DF350142479
:10182000156E15501200000E166E040E106E160E78
:10183000116E000E126ED00E95EC0BF016C014F067
:101840000F0E141616380F0B030B0A0DF350142449
:10185000156E15501200000E166E060E106E160E46
:10186000116E000E126ED00E95EC0BF016C014F037
:101870000F0E141616380F0B0A0DF3501424156EA4
:1018800015501200000E166E000E106E160E116E20
:10189000000E126ED00E95EC0BF016C014F00F0E69
:1018A000141616380F0B0A0DF3501424156E15502C
:1018B0001200000E166E010E106E160E116E000E46
:1018C000126ED00E95EC0BF016C014F00F0E14161D
:1018D00016380F0B0A0DF3501424156E1550120014
:1018E000136E1350D8B41200080E13601200135078
:1018F000070B126E030E0F6E12C010F0D00E82ECAA
:101900000CF01200116E13EC0DF01150FE0BF8EC00
:101910000CF00F50F8EC0CF01050F8EC0CF00FEC51
:101920000DF012000E6EB0EC0BF0C586C7A0FED70E
:10193000C9CF0FF00EB002D0C59801D0C5880F50A6
:101940001200000E146E030E106E140E116E000EB7
:10195000126ED00E95EC0BF014501200D59CD59A57
:10196000D598D596F80ED516FA0ED76E230ED66EEC
:10197000D59E120093829380C78EC79CC650F00BF1
:101980000809C66E1D0EC86EC68A1200CD8ECD9295
:10199000300ECD12FA0ECF6E230ECE6ECD80120019
:1019A0000D6E0DC097F00AC098F00BC099F00CC0F6
:1019B0009AF01200156E15C093F012C094F013C087
:1019C00095F014C096F012000D6E0DC08FF00AC095
:1019D00090F00BC091F00CC092F012000B0EC16E93
:1019E000000E936E9468000E956E0F0E966E1200A8
:1019F0000E6EB0EC0BF00EC0C9FFC7B0FED7C5AC81
:101A00001200FDD7F28CF28ED08EF184F294F28A1D
:101A10001200090909090102090800000000B0ECE0
:101A20000BF0C5841200B0EC0BF0C5801200B0ECD6
:0D1A30000BF0C5821200BAEC0CF012000899
:020000040020DA
:08000000FFFFFFFFFFFFFFFF00
:020000040030CA
:0E000000230E191EFF8380FF0FC00FE00F407C
:00000001FF
