:020000040000FA
:0400000007EF00F016
:10000800558269ED06F0ACEF04F0000E2D6E20EE7F
:1000180042F010EE3BF0060EDBCFE3FFE806FCE211
:10002800000E3D6E150E3E6EE5D13250196E3350FE
:100038001A6E324A332AD00E195C070E1A58D8A005
:100048000BD0000E336E000E326E3950D8A402D099
:10005800010E01D0000E396E2D50D8B403D02D04F6
:10006800D8A495D02D50D8A445D03904D8B405D0FB
:10007800000E1C6E0B0E1B6E0DD03BC00BF00C6AF5
:10008800000E0E6E0A0E0D6E8CEC03F00BC01BF00A
:100098000CC01CF01BC051F03904D8B405D0000EB8
:1000A8001E6E0B0E1D6E0DD03BC00BF00C6A000EC1
:1000B8000E6E0A0E0D6E0AEC04F00BC01DF00CC09B
:1000C8001EF01DC052F03CC00BF00C6A000E0E6E04
:1000D8000A0E0D6E8CEC03F00B50536E3CC00BF007
:1000E8000C6A000E0E6E0A0E0D6E0AEC04F00B5030
:1000F800546E44D03BC00BF00C6A000E0E6E0A0E14
:100108000D6E8CEC03F00B50516E3BC00BF00C6A7B
:10011800000E0E6E0A0E0D6E0AEC04F00B50526EB5
:100128003904D8B405D0000E206E0B0E1F6E0DD00A
:100138003CC00BF00C6A000E0E6E0A0E0D6E8CECB5
:1001480003F00BC01FF00CC020F01FC053F039049F
:10015800D8B405D0000E226E0B0E216E0DD03CC017
:100168000BF00C6A000E0E6E0A0E0D6E0AEC04F00F
:100178000BC021F00CC022F021C054F0000E2E6EEE
:10018800010E2F6E010E306E000E316E17D1020E69
:100198002D18D8B404D0030E2D18D8A493D0020E6D
:1001A8002D18D8A445D03904D8B405D0000E246E33
:1001B8000B0E236E0DD03FC00BF00C6A000E0E6EB6
:1001C8000A0E0D6E8CEC03F00BC023F00CC024F06B
:1001D80023C051F03904D8B405D0000E266E0B0E9A
:1001E800256E0DD03FC00BF00C6A000E0E6E0A0E85
:1001F8000D6E0AEC04F00BC025F00CC026F025C0EB
:1002080052F041C00BF00C6A000E0E6E0A0E0D6E15
:100218008CEC03F00B50536E41C00BF00C6A000ECF
:100228000E6E0A0E0D6E0AEC04F00B50546E44D09C
:100238003FC00BF00C6A000E0E6E0A0E0D6E8CECB1
:1002480003F00B50516E3FC00BF00C6A000E0E6E9F
:100258000A0E0D6E0AEC04F00B50526E3904D8B435
:1002680005D0000E286E0B0E276E0DD041C00BF086
:100278000C6A000E0E6E0A0E0D6E8CEC03F00BC0AD
:1002880027F00CC028F027C053F03904D8B405D0A3
:10029800000E2A6E0B0E296E0DD041C00BF00C6AB1
:1002A800000E0E6E0A0E0D6E0AEC04F00BC029F05B
:1002B8000CC02AF029C054F0000E2E6E010E2F6ECD
:1002C800000E61D70B0E516E0A0E526E3904D8B467
:1002D80005D0000E2C6E0B0E2B6E0DD040C00BF00F
:1002E8000C6A000E0E6E0A0E0D6E0AEC04F00BC0BE
:1002F8002BF00CC02CF02BC053F00A0E546E000EDD
:100308002E6E000E2F6E000E306E000E316EF00E47
:1003180000D0E82EFDD752D04DEC06F00009D8B435
:1003280064D03B2A3B04196E160E19645ED0000E89
:100338003B6E5BD04DEC06F00009D8B456D020EEE9
:100348003CF0DFCF19F0010EDF263A0E19644DD0CC
:10035800000E3C6E4AD04DEC06F00009D8B445D0EA
:1003680020EE3FF0DFCF19F0010EDF260B0E1964E7
:100378003CD0010E3F6E39D04DEC06F00009D8B4E0
:1003880034D020EE41F0DFCF19F0010EDF261E0E2B
:1003980019642BD0010E416E28D04DEC06F00009EF
:1003A800D8B423D020EE40F0DFCF19F0010EDF26BD
:1003B800060E19641AD0010E406E17D02D50196E12
:1003C8001A6A1A50000AD8A410D01950000AD8B4D2
:1003D800A3D7010AD8B4AED7030AD8B4BCD7010A48
:1003E800D8B4CAD7070AD8B4D8D731EC06F0000970
:1003F800D8A42D2A040E2D6418D63B0E176E000EB5
:10040800186E77EC04F01200090E34646BD0000EFD
:10041800346E352A3504016E020E016402D0000ED6
:10042800356E8A848A868A888A8A2E0E3524D96E01
:10043800DA6A000EDA22DE04D8B404D0000E066EA2
:10044800056804D0000E066E7F0E056E510E352429
:10045800D96EDA6A000EDA22DF50016E026A600E87
:100468000124D96E000E0220DA6EDF5005148C6E5E
:10047800030E3518D8B403D0016A012A01D0016AE5
:10048800014601468A500118FB0B01188A6E020EBC
:100498003518D8B403D0016A012A01D0016A01468F
:1004A800014601468A500118F70B01188A6E350477
:1004B800D8B403D0016A012A01D0016A013A8A50EE
:1004C8000118EF0B01188A6E3550D8B403D0016AB1
:1004D800012A01D0016A013A01468A500118DF0B4E
:1004E80001188A6E3550020D490EF324D96E000E9C
:1004F800F420DA6E3450036E046ADE50035CDE507A
:100508000458D8A014D03550D8A402D08A8A0FD065
:100518003504D8A402D08A880AD0020E3518D8A487
:1005280002D08A8604D0030E3518D8B48A84342AB7
:1005380012000B0EC16E000E936E9468000E956E3D
:100548000F0E966EB5EC07F095EC07F073EC07F01C
:10055800420E186E000E196EFCEC02F031EC06F03B
:100568000009D8B406D084B002D0030E01D0040E1E
:100578003A6E4DEC06F00009D8A484A220D03A2A9D
:100588003A0400016D6F010E6D6519D0000E3A6EC8
:1005980016D0CEEC03F0DCD742EC04F0D9D7A0ECAF
:1005A80006F0D6D709EC00F0000E3A6ED1D746EC2B
:1005B80003F031EC06F00009D8A4F6D7F8D73A5082
:1005C80000016D6F6E6B6E51000AD8A4C1D76D51D2
:1005D800000AD8B4DED7010AD8B4DED7030AD8B4E3
:1005E800DED7010AD8B4DED7070AD8B4E2D7B0D725
:1005F80019EC07F01A6E20EE02F01850D92619509F
:10060800DA221AC0DFFF30EC07F01A6E20EE01F094
:100618001850D9261950DA221AC0DFFFD2EC06F09A
:1006280018C0D9FF19C0DAFFDF6EEAEC06F01A6EBF
:1006380020EE06F01850D9261950DA221AC0DFFF2A
:1006480066EC07F01A6E20EE05F01850D9261950FE
:10065800DA221AC0DFFFBAEC06F01A6E20EE04F0B8
:100668001850D9261950DA221AC0DFFF02EC07F019
:100678001A6E20EE03F01850D9261950DA221AC043
:10068800DFFF12004DEC06F00009D8B410D0495035
:10069800126E4A50136E494A4A2A135004E10A0E50
:1006A800125CD8A004D0000E4A6E000E496E49C0F4
:1006B8004BF04AC04CF049C04DF04AC04EF049C01A
:1006C8004FF04AC050F00C0E516E0A0E526E49C0DF
:1006D8000BF04AC00CF0000E0E6E0A0E0D6E2BECDD
:1006E80005F00B50536E49C00BF04AC00CF0000ED9
:1006F8000E6E0A0E0D6E10EC06F00B50546E000EC6
:100708002F6E000E2E6E000E306E000E316E12002F
:10071800000E106E0EAE06D00D6C0E1ED8B00E2A4E
:10072800010E106E0CAE06D00B6C0C1ED8B00C2A45
:10073800010E101A000E126E000E116E0D500E10E2
:10074800D8B41CD0010E0F6E04D0D8900D360E36DA
:100758000F2A0EAEFAD7D890113612360D500B5C10
:100768000E500C58D8A005D00D500B5E0E500C5AE8
:100778001180D8900E320D320F2EEDD71050D8B40C
:1007880004D0116C121ED8B0122A11C00BF012C07E
:100798000CF0120042C00BF00C6A000E0E6E0A0E2E
:1007A8000D6E8CEC03F00B50516E42C00BF00C6ACE
:1007B800000E0E6E0A0E0D6E0AEC04F00B50526E0F
:1007C80043C00BF00C6A000E0E6E0A0E0D6E8CEC18
:1007D80003F00B50536E43C00BF00C6A000E0E6E04
:1007E8000A0E0D6E0AEC04F00B50546E3850441883
:1007F800D8B412002F50D8A402D0010E01D0000E98
:100808002F6E2FC030F044C038F01200000E106E6A
:100818000CAE06D00B6C0C1ED8B00C2A010E106E54
:100828000EAE04D00D6C0E1ED8B00E2A0D500E1050
:10083800D8B418D0010E0F6E04D0D8900D360E36ED
:100848000F2A0EAEFAD70D500B5C0E500C58D8A0DC
:1008580004D00D500B5E0E500C5AD8900E320D324B
:100868000F2EF1D71050D8B404D00B6C0C1ED8B092
:100878000C2A0BC00BF00CC00CF0120046C00BF099
:100888000C6A000E0E6E0A0E0D6E8CEC03F00B5007
:10089800516E46C00BF00C6A000E0E6E0A0E0D6EFD
:1008A8000AEC04F00B50526E48C00BF00C6A000EB4
:1008B8000E6E0A0E0D6E8CEC03F00B50536E48C092
:1008C8000BF00C6A000E0E6E0A0E0D6E0AEC04F0A8
:1008D8000B50546E010E2F6E000E2E6E000E306EF1
:1008E800000E316E120020EE02F01750D926185073
:1008F800DA22DF50A1EC05F020EE01F01750D926DE
:100908001850DA22DF50C7EC05F017C0D9FF18C01D
:10091800DAFFDF5054EC05F020EE06F01750D92628
:100928001850DA22DF5002EC05F020EE04F01750E0
:10093800D9261850DA22DF50D9EC04F020EE03F063
:100948001750D9261850DA22DF507BEC05F0120038
:10095800380EF66E0F0EF76E000EF86E00EE60F0B1
:1009680010EE0DF00900F5CFEEFFE550E150FAE189
:10097800450EF66E0F0EF76E000EF86E00EE49F09B
:1009880010EE0CF00900F5CFEEFFE550E150FAE16A
:1009980000EE2EF01B0EEE6AE806FDE1559055922A
:1009A800000EF86E00019DEF02F0166E1650D8B4D6
:1009B80012000D0E1660120016C00BF00C6A000E25
:1009C8000E6E0A0E0D6E0AEC04F00BC013F00CC08C
:1009D80014F016C00BF00C6A000E0E6E0A0E0D6EA7
:1009E8008CEC03F00B38F00B1310156E050E106E1F
:1009F80015C011F0D00E47EC07F01200166E165015
:100A0800D8B41200200E1660120016C00BF00C6A43
:100A1800000E0E6E0A0E0D6E0AEC04F00BC013F0F9
:100A28000CC014F016C00BF00C6A000E0E6E0A0E05
:100A38000D6E8CEC03F00B38F00B1310156E040ED2
:100A4800106E15C011F0D00E47EC07F01200000E22
:100A5800106E000E0F6E0D500E10D8B41CD0010E83
:100A6800116E04D0D8900D360E36112A0EAEFAD774
:100A7800D8900F3610360D500B5C0E500C58D8A07D
:100A880005D00D500B5E0E500C5A0F80D8900E32C8
:100A98000D32112EEDD70FC00BF010C00CF0120064
:100AA800166E180E1660120016C00BF00C6A000EB7
:100AB8000E6E0A0E0D6E0AEC04F00BC013F00CC09B
:100AC80014F016C00BF00C6A000E0E6E0A0E0D6EB6
:100AD8008CEC03F00B38F00B13103F0B156E020E65
:100AE800106E15C011F0D00E47EC07F01200166E0C
:100AF800640E1660120016C00BF00C6A000E0E6E23
:100B08000A0E0D6E0AEC04F00BC013F00CC014F0C2
:100B180016C00BF00C6A000E0E6E0A0E0D6E8CECF1
:100B280003F00B38F00B1310156E060E106E15C07F
:100B380011F0D00E47EC07F01200166E3C0E16604E
:100B4800120016C00BF00C6A000E0E6E0A0E0D6E27
:100B58000AEC04F00BC013F00CC014F016C00BF034
:100B68000C6A000E0E6E0A0E0D6E8CEC03F00B383C
:100B7800F00B1310156E000E106E15C011F0D00E8C
:100B880047EC07F01200166E3C0E1660120016C0F5
:100B98000BF00C6A000E0E6E0A0E0D6E0AEC04F0D5
:100BA8000BC013F00CC014F016C00BF00C6A000E4A
:100BB8000E6E0A0E0D6E8CEC03F00B38F00B131052
:100BC800156E010E106E15C011F0D00E47EC07F02F
:100BD8001200000E0E6E000E0D6E14D00D500B6E2E
:100BE8000E500C6E0D4A0E2A0C5015E1640E0B5C6B
:100BF800D8B01200100E0B6E940EE82EFED70B2EF6
:100C0800FCD700D0C5CF0BF01F0E0B16D8A4E6D723
:100C1800C7A41200E3D712000D500E10D8B418D094
:100C2800010E0F6E04D0D8900D360E360F2A0EAE78
:100C3800FAD70D500B5C0E500C58D8A004D00D50AC
:100C48000B5E0E500C5AD8900E320D320F2EF1D783
:100C58000BC00BF00CC00CF0120084B203D0010ED4
:100C6800376E15D084A213D03750D8B410D0000EE8
:100C7800376E130E0C6E440E0B6E440EE82EFED724
:100C88000B2EFCD70C2EFAD700D0010E1200000E46
:100C9800120084B003D0010E366E15D084A013D094
:100CA8003650D8B410D0000E366E070E0C6E170EE4
:100CB8000B6E6A0EE82EFED70B2EFCD70C2EFAD739
:100CC80000D0010E1200000E12000600D9CF07F066
:100CD800DACF08F0F3CF09F0F4CF0AF0F2A407D086
:100CE80008EC02F0FC0ED76E170ED66EF2940AC00E
:100CF800F4FF09C0F3FF08C0DAFF07C0D9FF559217
:100D08001100146EB1EC07F01450FE0B8BEC07F0D9
:100D180011508BEC07F0A9EC07F0145001098BEC8B
:100D280007F0000E57EC07F012C0D9FF13C0DAFF26
:100D3800DF6EADEC07F012000B0E516E0A0E526E0C
:100D480047C00BF00C6A000E0E6E0A0E0D6E0AEC10
:100D580004F00B50536E0A0E546E000E2F6E000EE8
:100D68002E6E000E306E000E316E1200000E176EE1
:100D7800050E116E170E126E000E136ED00E85EC56
:100D880006F017C015F00F0E151617380F0B010BCC
:100D98000A0DF3501524166E16501200000E176E29
:100DA800020E116E170E126E000E136ED00E85EC29
:100DB80006F017C015F00F0E151617380F0B030B9A
:100DC8000A0DF3501524166E16501200000E176EF9
:100DD800040E116E170E126E000E136ED00E85ECF7
:100DE80006F017C015F00F0E151617380F0B030B6A
:100DF8000A0DF3501524166E16501200000E176EC9
:100E0800060E116E170E126E000E136ED00E85ECC4
:100E180006F017C015F00F0E151617380F0B0A0D30
:100E2800F3501524166E16501200000E176E000EA1
:100E3800116E170E126E000E136ED00E85EC06F0B2
:100E480017C015F00F0E151617380F0B0A0DF350B3
:100E58001524166E16501200000E176E010E116E34
:100E6800170E126E000E136ED00E85EC06F017C02A
:100E780015F00F0E151617380F0B0A0DF350152421
:100E8800166E16501200126EB1EC07F01250FE0BDF
:100E98008BEC07F010508BEC07F011508BEC07F03F
:100EA800ADEC07F012000F6EEDEC05F0C586C7A09B
:100EB800FED7C9CF10F00FB002D0C59801D0C588B1
:100EC80010501200000E156E030E116E150E126EE4
:100ED800000E136ED00E85EC06F015501200D59C4E
:100EE800D59AD598D596F80ED516E80ED76E8F0EEA
:100EF800D66ED58E120093829380C78EC79CC6503B
:100F0800F00B0809C66E770EC86EC68A12000F6EFF
:100F1800EDEC05F00FC0C9FFC7B0FED7C5AC120095
:100F2800FDD7F28CF28ED08EF184F294F28A120000
:100F3800C0F9A4B0999282F88090BFFFC60400045B
:090F480000040004000102090884
:100F5200EDEC05F0C5821200EDEC05F0C58412003F
:0E0F6200EDEC05F0C58012007FEC07F01200E8
:020000040020DA
:08000000FFFFFFFFFFFFFFFF00
:020000040030CA
:0E000000230E191EFF8380FF0FC00FE00F407C
:00000001FF
